:100000000C9446000C9463000C9463000C94630001
:100010000C9463000C9463000C9463000C946300D4
:100020000C9463000C9463000C9463000C946300C4
:100030000C9463000C9463000C9463000C946300B4
:100040000C9463000C9463000C94BD030C94630047
:100050000C9463000C9463000C9463000C94630094
:100060000C9463000C9463000C9463000C94630084
:100070000C9463000C9463000C9463000C94630074
:100080000C9463000C9463000C94630011241FBE55
:10009000CFEFD0E1DEBFCDBF12E0A0E0B1E0E6E6F9
:1000A000FAE002C005900D92A030B107D9F716E032
:1000B000A0E0B2E001C01D92A732B107E1F70E94B3
:1000C00053010C9431050C940000FC01EF77F070A3
:1000D000E050FF4F40819C01220F232F221F330B42
:1000E000319542BB2BBB95FD06C0809162008064B8
:1000F000809362000895809162008F7B80936200FC
:100100000895EF92FF920F931F937C018FEF85BBB1
:1001100014BAC7010E94650012E0812F8A95F1F799
:10012000E5E6F0E08081877F8083812F8A95F1F773
:1001300003B3808188608083C70190620E9465005C
:100140001A95F1F7802F1F910F91FF90EF9008956E
:100150001F931FEF14BB65BB0E946500E2E6F0E051
:1001600080818F7E808382E08A95F1F78081806133
:10017000808315BB14BA1F910895CF92DF92EF923E
:10018000FF920F931F93CF93DF936C017B018A0142
:10019000C79A6115710571F0C0E0D0E0CE018C0DF9
:1001A0009D1DF80161918F010E94A8002196CE1536
:1001B000DF05A1F7C798DF91CF911F910F91FF90B5
:1001C000EF90DF90CF900895AF92BF92CF92DF92E1
:1001D000FF920F931F936C01F62EA12C70E2B72EA5
:1001E000A82AB92AC5010E94650002E610E0F801BC
:1001F0008081806180838FEF84BBF5BA62E0F62E48
:100200008F2D8A95F1F7C6010E946500F801808163
:100210008F7E80838F2D8A95F1F7C5010E9465003E
:10022000F801808180618083FA94F1F71F910F912A
:10023000FF90DF90CF90BF90AF900895FF920F9303
:100240001F93C69A80E094E00E94650000ED17E0DD
:10025000C8010197F1F7F090630080E098E00E94F8
:100260006500C8010197F1F7809163008295817064
:10027000C698F4FE0CC0882329F481E01F910F91E9
:10028000FF9008958EEF1F910F91FF90089588239E
:1002900029F48FEF1F910F91FF90089580E01F9137
:1002A0000F91FF9008952F923F924F925F926F921D
:1002B0007F928F929F92AF92BF92CF92DF92EF92F6
:1002C000FF920F931F93DF93CF93CDB7DEB7609765
:1002D0000FB6F894DEBF0FBECDBF88E893E128ECDF
:1002E00030E0F9013197F1F70197D9F70E94E60361
:1002F000789487B3806C87BBC798C698809161005B
:1003000080618093610080916200806180936200CF
:1003100080916400886080936400809165008860AB
:1003200080936500809164008F7E8093640080914B
:10033000650080618093650080E090E20E94650026
:100340009FEF9ABB91BB80916100806480936100B4
:1003500095BB14BA0E94310481E060E070E00E9415
:100360006B04AA24AA94A8EC8A2E912C8FB58962DA
:100370008FBD8EB581608EBD21E030E040E050E061
:10038000E0E060E070E080910B02882309F043C058
:100390008FB589628FBD8EB581608EBD203187E2B9
:1003A000380780E0480780E0580708F458C0EE237B
:1003B00009F05FC06F5F7F4F6E3671050CF0E1E0B2
:1003C0006436710534F06456704079BD68BD6C596F
:1003D0007F4FEE2309F448C08EE690E0861B970B12
:1003E000853191050CF040C08B3091052CF024E153
:1003F00030E0281B390BC901880F991F90937900B1
:100400008093780020E030E040E050E080910B02E3
:10041000882309F4BDCF1092790010927800809162
:1004200078009091790099BD88BD88B599B58FBD48
:1004300080910C02813109F445C1823120F58B3065
:1004400009F46AC18D3009F447C1863029F481E08E
:1004500060E070E00E946B0410920B0287CF2F5F68
:100460003F4F4F4F5F4F8FCF20E030E040E050E0F4
:100470008ACF6150704009F0A3CF20E030E040E027
:1004800050E0E0E080CF873109F402C1883108F004
:1004900062C0863109F730910D0220910E029091D1
:1004A0000F028091100288871F82492E55248F8168
:1004B0009885482A592AC79A4114510409F442C020
:1004C0002A871986632E7724E985FA856E2A7F2A82
:1004D000CC24DD247601E60CF71CF601E35FFD4F2A
:1004E000B48087011062C8010E946500188A1F86C7
:1004F000A4BAB5BAC4010197F1F7C7010E9465001B
:10050000809162008F7E80936200C4010197F1F7B1
:10051000C8010E9465008091620080618093620042
:10052000C4010197F1F72F8538892F5F3F4F388B32
:100530002F872A303105E1F60894C11CD11C4C14D8
:100540005D0441F6A5BA14BAC7988EE060E070E089
:100550000E946B0481CF8A3109F462C08B3109F0AB
:100560007BCF90910D0280910E028C871B86492EC5
:100570005524EB85FC854E2A5F2A90910F028091CD
:1005800010028E871D86692E77242D853E85622A6E
:10059000732AC79A57FCECC06114710499F2EE24D7
:1005A000FF248701040D151DF701E35FFD4FD48083
:1005B00085E595E06AEA0E94E4008AEA92E065E552
:1005C0000E94E40085E595E060EA0E94E400C8012D
:1005D0006D2D0E94E400188A1F8608C0C40101978F
:1005E000F1F7EF85F8893196F88BEF87C8010E9403
:1005F0008100D81649F02F8538892A30310571F7E6
:10060000A5BA14BAC79828CF8F8598890A97C4F7D6
:100610000894E11CF11C6E147F0409F0C2CF92CF44
:10062000C79A85E595E06AEA0E94E4008AEA92E0CA
:1006300065E50E94E40085E595E060E80E94E4003D
:1006400085E595E06AEA0E94E4008AEA92E065E5C1
:100650000E94E40085E595E060E10E94E40000E08E
:1006600010E00AC037E20031130761F280ED97E035
:100670000197F1F70F5F1F4F80E090E00E9481002B
:100680008F3F81F7C798005117420CF0E5CE5DCF40
:1006900080E090E20E946500809165008860809310
:1006A000650080916200806180936200A4BAC79A5D
:1006B00020E137E2C4010197F1F721503040D1F732
:1006C000C798CACE82E161E070E00E946B040E948C
:1006D0001E010E945304C0CE80910D0220910E0293
:1006E00060910F02309110022C831B8290E03E83B8
:1006F0001D8270E0ED81FE816E2B7F2B2B813C8172
:10070000822B932B41E152E00E94BD008EE060E01D
:1007100070E00E946B04A0CEE0900D02F0900E02FB
:1007200090910F0280911002382E2224092F10E0A0
:1007300002291329C69A8CE0B8010E946B040115A6
:100740001105A1F0FA821982FF2489819A81E82A91
:10075000F92AC7010E9481000E94530401501040F1
:100760000894E11CF11C0115110599F7C69874CE87
:1007700080E090E8480E591E0FCF1F920F920FB6DF
:100780000F9211242F933F934F935F936F937F9317
:100790008F939F93AF93BF93EF93FF935F9B05C09E
:1007A0008CB10E9490045F99FBCFFF91EF91BF91B4
:1007B000AF919F918F917F916F915F914F913F91F9
:1007C0002F910F900FBE0F901F90189581E089B95F
:1007D0001092900088E98AB9E5E9F0E080818660AE
:1007E000808308955D9BFECF8CB90895982F9295D4
:1007F0009F709A3070F4905D8F708A3040F4805D05
:100800005D9BFECF9CB95D9BFECF8CB90895895C42
:10081000F7CF995CF1CFFC018081882339F05D9B93
:10082000FECF8CB9319680818823C9F708959C0149
:10083000411551056105710599F080E090E0A0E057
:10084000B0E0F901E80FF91FE0815D9BFECFECB944
:100850000196A11DB11D84179507A607B70788F358
:100860000895109206021092050210920B02109247
:1008700008020895582F90910002382F20E04CE88C
:1008800001C03695892F8327969580FD94272F5F89
:100890002830B9F790930002852F0E94F2038AE175
:1008A0008A95F1F708950E943A048091030290918D
:1008B00004020196909304028093030220910102A6
:1008C000309102028217930709F008958091000287
:1008D0000E94F2030895FF920F931F93F82E8B014D
:1008E0001092000286E40E943A048F2D0E943A047E
:1008F000802F0E943A04812F0E943A041093020232
:10090000009301021092040210920302012B21F4C1
:10091000809100020E94F2031F910F91FF900895B1
:10092000782F80910802882319F0763409F0089511
:10093000109208024091050250910602411551059E
:1009400009F440C030910702272F90E06CE801C005
:100950002695832F8227369580FD36279F5F983016
:10096000B9F7309307024130510589F14230510502
:100970000CF44AC04230510509F43FC043305105E0
:1009800079F1FA01349784E0EA31F80708F053C0AE
:100990008091090290910A02E817F90708F447C00C
:1009A0008091090290910A02E817F90791F4332324
:1009B00009F04EC081E080930B0210920602109263
:1009C000050208951092070210920B02BBCF70939C
:1009D0000C024F5F5F4F509306024093050208954B
:1009E0002091090230910A02972F80E0822B932BED
:1009F00090930A0280930902ECCF872F90E09093A6
:100A00000A0280930902E5CF4115510509F0B9CFDB
:100A10007634F9F281E08093080282E060E070E0D1
:100A20000E946B044091050250910602D2CFE35F11
:100A3000FD4F7083CECF109206021092050281E026
:100A40008093080284E060E070E00E946B040895E7
:100A500081E08093080283E060E070E00E946B0414
:060A6000ACCFF894FFCFBB
:100A6600008040C020A060E0109050D030B070F000
:100A7600088848C828A868E8189858D838B878F870
:100A8600048444C424A464E4149454D434B474F4A0
:100A96000C8C4CCC2CAC6CEC1C9C5CDC3CBC7CFC10
:100AA600028242C222A262E2129252D232B272F2A0
:100AB6000A8A4ACA2AAA6AEA1A9A5ADA3ABA7AFA10
:100AC600068646C626A666E6169656D636B676F640
:100AD6000E8E4ECE2EAE6EEE1E9E5EDE3EBE7EFEB0
:100AE600018141C121A161E1119151D131B171F170
:100AF600098949C929A969E9199959D939B979F9E0
:100B0600058545C525A565E5159555D535B575F50F
:100B16000D8D4DCD2DAD6DED1D9D5DDD3DBD7DFD7F
:100B2600038343C323A363E3139353D333B373F30F
:100B36000B8B4BCB2BAB6BEB1B9B5BDB3BBB7BFB7F
:100B4600078747C727A767E7179757D737B777F7AF
:100B56000F8F4FCF2FAF6FEF1F9F5FDF3FBF7FFF1F
:00000001FF
