:10F8000011241FBECFEFD0E1DEBFCDBF12E0A0E0DC
:10F81000B1E001C01D92A030B107E1F70E94327C37
:10F820000C94167E0C94147C08955D9BFECF81E4AD
:10F830008CB95D9BFECF86E58CB95D9BFECF82E5E2
:10F840008CB95D9BFECF82E48CB95D9BFECF8FE4CB
:10F850008CB95D9BFECF8FE48CB95D9BFECF84E5B8
:10F860008CB908952F923F924F925F926F927F9240
:10F870008F929F92AF92BF92CF92DF92EF92FF92C0
:10F880000F931F93DF93CF9300D00F92CDB7DEB7C6
:10F8900004B603FE03C0E0E0F0E0099514BEC79A89
:10F8A000BF9AF894A89588E10FB6F89481BD11BC71
:10F8B0000FBE8F98979A1092900099E199B98AB9E2
:10F8C00086E080939500CC24DD24EE24FF2400E222
:10F8D0001EE45F9B03C08CB1833589F028EEC2160D
:10F8E00023E0D20628F09798C798BF98F7010995AA
:10F8F0000894C11CD11CC8010197F1F7EACF0E94FE
:10F90000157C1982AA24BB245F9BFECF9CB1913643
:10F9100021F45D9BFECF39E5A2C0913479F45F9B61
:10F92000FECF9CB15F9BFECF8CB15D9BFECF392E8D
:10F930002224A82EBB24A228B3280EC1923659F443
:10F940005D9BFECF89E58CB95D9BFECF91E09CB9B4
:10F950005D9BFECF19C1923409F086C05F9BFECF3C
:10F960009CB15F9BFECF8CB1592E4424C82EDD2460
:10F97000C428D5285F9BFECF3CB180E090E0E0E05A
:10F98000F1E08C159D0510F02FEF03C05F9BFECFBB
:10F990002CB12083019621E08030920711F031963E
:10F9A000F0CF6981663409F05CC0363409F039C0A3
:10F9B000750100E010E0EE0CFF1C001F111FA801F4
:10F9C0009701A0E0B1E08C9190E011969C90119786
:10F9D000882488299929129661E0F9010C01609325
:10F9E0006800E89511242E5F3F4F4F4F5F4F8EEF19
:10F9F0009FEFC80ED91EC114D10429F765E0F701A5
:10FA000060936800E8958091680080FDFCCF81E1FB
:10FA100080936800E8955695479537952795590145
:10FA20001BC03534C9F4DB82CA82850140E0E42E74
:10FA300041E0F42EF70161917F01C8010E94097E27
:10FA40000F5F1F4F2A813B81215030403B832A8327
:10FA5000232B81F7AC0CBD1C5D9BFECF3DE03CB978
:10FA600053CF5D9BFECF90C0973609F047C05F9B98
:10FA7000FECF9CB15F9BFECF8CB1792E6624C82E41
:10FA8000DD24C628D7285F9BFECF8CB1863401F5D4
:10FA9000C501A0E0B0E0880F991FAA1FBB1FFC01A1
:10FAA000259134915D9BFECF2CB95D9BFECF3CB977
:10FAB0000296A11DB11DEEEFFFEFCE0EDF1EC114A9
:10FAC000D10469F7B695A795979587955C011CCFEA
:10FAD000853409F019CF76018501C8010E94017EA5
:10FAE0005D9BFECF8CB90F5F1F4F0894E108F108B2
:10FAF000E114F10491F7AC0CBD1C06CF9536D1F49E
:10FB0000F981F634A1F4E0E0F0E023E0209368000E
:10FB1000E8958091680080FDFCCFE050FF4F38EF02
:10FB2000E030F30791F761E160936800E8955D9B31
:10FB3000FECF19C0953461F4E8E1F0E02CE00FB697
:10FB4000F894A895E1BD0FBE21BD5D9BFECF86CF89
:10FB5000903529F45D9BFECF6DE06CB9D5CE9C3419
:10FB600021F45D9BFECF8DE033C0903729F45D9B7F
:10FB7000FECF93E59CB9C8CE943741F45D9BFECF90
:10FB8000E6E4ECB95D9BFECF1CB8BECE892F88574A
:10FB9000823038F45F9BFECF8CB15D9BFECFFDE0E1
:10FBA00026C0943539F45F9BFECF2CB129835D9B31
:10FBB000FECF54CF933519F40E94157CA5CE96350F
:10FBC00049F45D9BFECF60E36CB95D9BFECF88E39B
:10FBD0008CB99ACE933769F45D9BFECF92E09CB9C5
:10FBE0005D9BFECFE6E9ECB95D9BFECFFEE1FCB983
:10FBF0008BCE9B3109F488CE5D9BFECF2FE32CB9D1
:10FC000083CEE199FECF9FBB8EBBE09A99278DB33F
:10FC10000895262FE199FECF9FBB8EBB2DBB0FB65B
:10FC2000F894E29AE19A0FBE01960895F894FFCFF6
:040000030000F80001
:00000001FF
