:100000000C9446000C9458000C9458000C94580022
:100010000C9458000C9458000C9458000C94580000
:100020000C9458000C9458000C9458000C945800F0
:100030000C9458000C9458000C9458000C945800E0
:100040000C9458000C9458000C94B0000C94580078
:100050000C9458000C9458000C9458000C945800C0
:100060000C9458000C9458000C9458000C945800B0
:100070000C9458000C9458000C9482000C94580076
:100080000C9458000C9458000C94580011241FBE76
:10009000CFEFD0E1DEBFCDBF15E0A0E0B1E001C001
:1000A0001D92A732B107E1F70E9426010C94630666
:1000B0000C940000DC98979A96982FEF24BB65BBB0
:1000C000492F4F709C01220F232F221F330B319594
:1000D000207E422B4061809362004BBB97FD0CC099
:1000E000979A82E08A95F1F7DC98979A8FEF85BB13
:1000F00014BA969ADC9A08959798F3CF90680E9464
:100100005A0008951F920F920FB60F9211242F9349
:100110003F934F935F936F937F938F939F93AF938F
:10012000BF93EF93FF9380919B0087FF08C080915E
:100130009C000E94BB0480919B0087FDF8CFFF913B
:10014000EF91BF91AF919F918F917F916F915F914F
:100150004F913F912F910F900FBE0F901F901895C8
:100160001F920F920FB60F9211241F932F933F935C
:100170004F935F936F937F938F939F93AF93BF93AF
:10018000EF93FF935F9B09C01CB1812F0E9408056C
:10019000812F0E94C2055F99F7CFFF91EF91BF9128
:1001A000AF919F918F917F916F915F914F913F910F
:1001B0002F911F910F900FBE0F901F901895979A37
:1001C00096985FEF54BB65BB9F77492F4F709C019A
:1001D000220F232F221F330B3195207E422B4061AB
:1001E000809362004BBB979A82E0982F9A95F1F723
:1001F0009798982F9A95F1F7979A982F9A95F1F7E3
:1002000055BB14BA969A8A95F1F708952FEF25BB3E
:1002100014BA969A492F4F709C01220F232F221F48
:10022000330B3195207E422B4061809362004BBBA3
:1002300097FD06C0979A82E08A95F1F783B30895F7
:10024000979882E08A95F1F783B308952F923F92B1
:100250004F925F926F927F928F929F92AF92BF92D6
:10026000CF92DF92EF92FF920F931F93DF93CF9382
:10027000CDB7DEB766970FB6F894DEBF0FBECDBF21
:1002800078940E94AF040E94FA0487B3806C87BB05
:100290008FEF85BB14BA969A979A1092620080935A
:1002A00061008ABB80EC81BB80E282BBC798C698A4
:1002B0000E94660580E060E070E00E949D0518ECF9
:1002C000212E312CBAE1CB2E8FB589628FBD8EB530
:1002D00081608EBD21E030E040E050E0E0E060E091
:1002E00070E080910B01882309F043C08FB58962CB
:1002F0008FBD8EB581608EBD203187E2380780E0EA
:10030000480780E0580708F457C0EE2309F059C0A9
:100310006F5F7F4F6E3671050CF0E1E0643671055A
:1003200034F06456704079BD68BD6C597F4FEE2340
:1003300009F451C08EE690E0861B970B853191053C
:100340000CF049C08B3091052CF024E130E0281BE3
:10035000390BC901880F991F909379008093780019
:1003600020E030E040E050E080910B01882309F468
:10037000BDCF109279001092780080917800909112
:10038000790099BD88BD88B599B58FBD80910C0164
:10039000853109F47AC2863118F5893009F4A2C191
:1003A0008A3008F076C1853009F406C2873009F436
:1003B000D1C110920B0188CF2F5F3F4F4F4F5F4F3E
:1003C00090CF6150704009F0A9CF20E030E040E0CC
:1003D00050E0E0E086CF20E030E040E050E081CF28
:1003E000893109F448C08A3108F099C0873109F48D
:1003F00032C28831F1F6C79A85E595E06AEA0E9433
:10040000DF008AEA92E065E50E94DF0085E595E07D
:1004100060E80E94DF0085E595E06AEA0E94DF005F
:100420008AEA92E065E50E94DF0085E595E060E1FB
:100430000E94DF0000E010E00CC0F7E200311F076F
:1004400009F46AC0979A80ED97E00197F1F70F5F82
:100450001F4F80E090E80E9406018F3F71F7979A46
:10046000C798005117420CF0A4CF8AE060E070E01A
:100470000E949D059ECF90910D0180910E018E8767
:100480001D86892E99248D859E85882A992A90918A
:100490000F0180911001888B1F86A92EBB24EF8548
:1004A000F889AE2ABF2AC79A97FC54C2A114B10496
:1004B00009F4E8C0EE24FF248701080D191DF70197
:1004C000E35FFE4FD48085E595E06AEA0E94DF0095
:1004D0008AEA92E065E50E94DF0085E595E060EA42
:1004E0000E94DF00C8016D2D0E94DF0010686624A5
:1004F000772408C0979ADC98C1010197F1F7089416
:10050000611C711CC8010E940601D81609F4AEC115
:100510003AE06316710471F7979AC7984ACF85320B
:1005200009F450C1863209F044CF30910D01209179
:100530000E0190910F01809110018A8B198AA92ECA
:10054000BB2489899A89A82AB92AC79A979AA1149B
:10055000B10409F496C02C8B1B8AE32FF0E02B89A1
:100560003C89E22BF32BFE8BED8BE1E14E2EE1E09B
:100570005E2E2D893E89207E32018D889E8810E076
:1005800005C0C401807E2817390789F4F3018081F2
:100590008F3F09F01F5F0894811C911C0894A108EB
:1005A000B1080894611C711CA114B10451F7112306
:1005B00041F4A114B10409F464C09E8A8D8A230118
:1005C000D8CF8AEA9AE06AEA0E947E0085E595E043
:1005D00065E50E947E0080E090E065E20E947E007A
:1005E000612F615080E090E00E947E0001C02C01EC
:1005F000F20160816F3F29F08D899E890E947E0003
:1006000011502D893E892F5F3F4F3E8B2D8BC201AC
:100610000196112361F780E090E069E20E947E007C
:100620008C2D8A95F1F7DD24EE24FF2487018D8936
:100630009E89019790689E8B8D8B13C08C2D8A9517
:10064000F1F70894E11CF11C011D111DF0EAEF16F1
:10065000F6E8FF06F1E00F07F0E01F0709F45CCFB2
:10066000D92E8D899E890E940601982F979A8D1503
:1006700029F7F2018081D81609F7A114B10409F015
:100680009CCF979AC7988AE060E070E00E949D0531
:1006900090CE8F30B9F0833109F08BCEC79AC69ACD
:1006A000DC9820E137E2C1010197F1F72150304099
:1006B000D1F7DC9AC798C69884E160E070E00E94A8
:1006C0009D0577CE3BB330612BB32F7E80E890E061
:1006D0002BBB3BBB0197E1F780E160E070E00E943B
:1006E0009D0567CE30910D0120910E0190910F0173
:1006F000809110018E831D82E92EFF248D819E81C1
:10070000E82AF92AC79AE114F104C9F028871F8260
:10071000032F10E0EF81F8850E2B1F2BAA24BB249A
:10072000F501E35FFE4FC501800F911F64810E94B8
:100730005A000894A11CB11CEA14FB0489F780E25A
:100740009EE40197F1F7C7988AE060E070E00E94AC
:100750009D052FCEE0900D01F0900E0190910F01BC
:10076000809110018A831982092F10E089819A8172
:10077000082B192BC69A9FEF95BB14BA969A88E05E
:10078000B8010E949D0501151105A1F0FC821B8294
:10079000FF24EB81FC81EE2AFF2AC7010E9406019B
:1007A0000E948505015010400894E11CF11C0115C0
:1007B000110599F7C698FDCD80E060E070E00E94D9
:1007C0009D05F7CDC79A80E090E060EF0E947E0023
:1007D0008AEA9AE06AEA0E947E0085E595E065E58E
:1007E0000E947E008AEA9AE060E80E947E008AEA1F
:1007F0009AE06AEA0E947E0085E595E065E50E9440
:100800007E0080E090E060E30E947E0000E010E067
:100810000AC09BE0083B190761F080ED97E0019763
:10082000F1F70F5F1F4F80E090E80E9406018F3FB5
:1008300081F710926200E0E1EBBB979ADC9A979AFD
:10084000C798085B1B400CF0B4CD8AE060E070E014
:100850000E949D05AECDC79A20E137E2C101019704
:10086000F1F721503040D1F7C798A3CD979A8AE08D
:10087000681671040CF051CE0894E11CF11CAE1402
:10088000BF0409F019CEC798FECE90910D0180915A
:100890000E018A871986492F50E029853A85422B17
:1008A000532B90910F01809110018C871B86A92FEB
:1008B000B0E08B859C85A82BB92BC79A57FD47C004
:1008C000109709F439C060E070E0FB01E35FFE4F70
:1008D000E481252F2F70CA01880F892F881F990B5B
:1008E0009195807E282B2061409362002BBB57FDA1
:1008F0001FC0979A20E030E0E5BB96989FEF94BB2D
:10090000C1010197F1F79798C1010197F1F7979A03
:10091000C1010197F1F72F5F3F4F2A30310561F791
:100920006F5F7F4FA617B70739F04F5F5F4FCDCF8F
:10093000979820E030E0E0CFEFEFE5BB14BA969A4D
:10094000C7988AE060E070E00E949D0532CD40507B
:100950005048B6CF20E030E8820E931EA7CD81E04C
:1009600089B91092900088E98AB9E5E9F0E08081C0
:100970008660808308955D9BFECF8CB90895982F83
:1009800092959F709A3070F4905D8F708A3040F429
:10099000805D5D9BFECF9CB95D9BFECF8CB90895B9
:1009A000895CF7CF995CF1CFFC018081882339F015
:1009B0005D9BFECF8CB9319680818823C9F708955D
:1009C0009C01411551056105710599F080E090E0A9
:1009D000A0E0B0E0F901E80FF91FE0815D9BFECFD8
:1009E000ECB90196A11DB11D84179507A607B7079D
:1009F00088F3089581E0809399001092980088E927
:100A000080939A00EDE9F0E080818660808308950C
:100A1000982F80919B0085FFFCCF90939C000895B8
:100A2000982F92959F709A30B8F4292F205D8F707F
:100A30008A3078F4982F905D80919B0085FFFCCFE1
:100A400020939C0080919B0085FFFCCF90939C009D
:100A50000895982F995CF0CF292F295CE8CFFC01ED
:100A60009081992351F080919B0085FFFCCF90935A
:100A70009C00319690819923B1F70895EF92FF92EF
:100A80000F931F93DC017A018B014115510561051C
:100A90007105B9F020E030E040E050E0FD01E20FE8
:100AA000F31FE08180919B0085FFFCCFE0939C00C9
:100AB0002F5F3F4F4F4F5F4F2E153F0540075107A8
:100AC00068F31F910F91FF90EF9008951092060127
:100AD0001092050110920B01109208010895582FF1
:100AE00090910001382F20E04CE801C03695892F05
:100AF0008327969580FD94272F5F2830B9F7909330
:100B00000001852F0E94BB0408950E946F0580910B
:100B100003019091040101969093040180930301D5
:100B200020910101309102018217930709F0089585
:100B3000809100010E94BB040895FF920F931F93C0
:100B4000F82E8B011092000186E40E946F058F2D14
:100B50000E946F05802F0E946F05812F0E946F05F4
:100B600010930201009301011092040110920301FD
:100B7000012B21F4809100010E94BB041F910F9171
:100B8000FF900895782F80910801882319F076341A
:100B900009F0089510920801409105015091060155
:100BA0004115510509F440C030910701272F90E00D
:100BB0006CE801C02695832F8227369580FD362765
:100BC0009F5F9830B9F7309307014130510589F1A3
:100BD000423051050CF44AC04230510509F43FC07F
:100BE0004330510579F1FA01349784E0EA31F8078E
:100BF00008F053C08091090190910A01E817F907A4
:100C000008F447C08091090190910A01E817F9079B
:100C100091F4332309F04EC081E080930B011092D0
:100C200006011092050108951092070110920B0120
:100C3000BBCF70930C014F5F5F4F50930601409301
:100C4000050108952091090130910A01972F80E054
:100C5000822B932B90930A0180930901ECCF872F6D
:100C600090E090930A0180930901E5CF4115510569
:100C700009F0B9CF7634F9F281E08093080182E07F
:100C800060E070E00E949D054091050150910601D1
:100C9000D2CFE35FFE4F7083CECF10920601109249
:100CA000050181E08093080184E060E070E00E942B
:100CB0009D05089581E08093080183E060E070E085
:0A0CC0000E949D05ACCFF894FFCF11
:00000001FF
